:020000040800F2
:10000000000002204D8C00084146000843460008CD
:100010004546000847460008494600080000000021
:100020000000000000000000000000004B46000837
:100030004D460008000000004F46000851460008E9
:100040009D8C00089D8C00089D8C00089D8C0008EC
:100050009D8C00089D8C00089D8C00089D8C0008DC
:100060009D8C00089D8C00089D8C00089D8C0008CC
:100070009D8C00089D8C00089D8C00089D8C0008BC
:10008000594600089D8C0008694600089D8C0008B0
:100090009D8C00089D8C00089D8C00089D8C00089C
:1000A0009D8C00089D8C00089D8C00089D8C00088C
:1000B000794600089D8C00089D8C00089D8C0008E6
:1000C0009D8C00089D8C00089D8C00089D8C00086C
:1000D0009D8C000889460008AD4600089D8C0008EC
:1000E0009D8C00089D8C00089D8C00089D8C00084C
:1000F0009D8C00089D8C00089D8C00089D8C00083C
:100100009D8C00089D8C0008D14600089D8C00083D
:100110009D8C00089D8C00089D8C00089D8C00081B
:10012000E14600089D8C0008F14600089D8C0008FF
:100130009D8C000800000000000000009D8C00085D
:100140009D8C00089D8C00089D8C00089D8C0008EB
:100150009D8C00089D8C00089D8C00089D8C0008DB
:100160009D8C00089D8C00089D8C00089D8C0008CB
:100170009D8C00089D8C0008000000009D8C0008EC
:08018000014700089D8C0008F6
:1001900010B5054C237833B9044B13B10448AFF3C1
:1001A00000800123237010BD3802002000000000F1
:1001B000DCAA000808B5034B1BB103490348AFF3A1
:1001C000008008BD000000003C020020DCAA0008FE
:1001D00010F8012B11F8013B012A28BF9A42F7D0F1
:1001E000D01A7047034613F8012B002AFBD1181AC6
:1001F000013870470000000000000000000000000F
:1002000001F0FF01102A2BDB10F0070F08D010F8C7
:10021000013B013A8B422DD010F0070F42B3F6D1CB
:10022000F0B441EA012141EA014122F007047FF0E4
:1002300000070023F0E80256083C85EA010586EA3B
:10024000010685FA47F5A3FA87F586FA47F6A5FA77
:1002500087F68EB9EED1F0BC01F0FF0102F0070283
:1002600032B110F8013B013A83EA010313B1F8D12E
:100270000020704701387047002D06BF354603380F
:10028000073815F0010F07D1013015F4807F02BF48
:10029000013015F4C03F0130F0BC0138704700BF99
:1002A00081F0004102E000BF83F0004330B54FEA27
:1002B00041044FEA430594EA050F08BF90EA020F94
:1002C0001FBF54EA000C55EA020C7FEA645C7FEA27
:1002D000655C00F0E2804FEA5454D4EB5555B8BF4A
:1002E0006D420CDD2C4480EA020281EA030382EABB
:1002F000000083EA010180EA020281EA0303362D4D
:1003000088BF30BD11F0004F4FEA01314FF4801C1F
:100310004CEA113102D0404261EB410113F0004F31
:100320004FEA03334CEA133302D0524263EB4303E8
:1003300094EA050F00F0A780A4F10104D5F1200E86
:100340000DDB02FA0EFC22FA05F2801841F10001E1
:1003500003FA0EF2801843FA05F359410EE0A5F1B5
:1003600020050EF1200E012A03FA0EFC28BF4CF0E6
:10037000020C43FA05F3C01851EBE37101F000459C
:1003800007D54FF0000EDCF1000C7EEB00006EEBA9
:100390000101B1F5801F1BD3B1F5001F0CD3490833
:1003A0005FEA30004FEA3C0C04F101044FEA44528A
:1003B00012F5800F80F09A80BCF1004F08BF5FEA11
:1003C000500C50F1000041EB045141EA050130BDF1
:1003D0005FEA4C0C404141EB0101013C28BFB1F503
:1003E000801FE9D291F0000F04BF01460020B1FA4E
:1003F00081F308BF2033A3F10B03B3F120020CDA21
:100400000C3208DD02F1140CC2F10C0201FA0CF0FE
:1004100021FA02F10CE002F11402D8BFC2F1200C63
:1004200001FA02F120FA0CFCDCBF41EA0C01904019
:10043000E41AA2BF01EB0451294330BD6FEA040462
:100440001F3C1CDA0C340EDC04F11404C4F120024D
:1004500020FA04F001FA02F340EA030021FA04F35F
:1004600045EA030130BDC4F10C04C4F1200220FAB6
:1004700002F001FA04F340EA0300294630BD21FAF4
:1004800004F0294630BD94F0000F83F4801306BFBA
:1004900081F480110134013D4EE77FEA645C18BFAE
:1004A0007FEA655C29D094EA050F08BF90EA020F45
:1004B00005D054EA000C04BF1946104630BD91EA3D
:1004C000030F1EBF0021002030BD5FEA545C05D140
:1004D0004000494128BF41F0004130BD14F580047F
:1004E0003CBF01F5801130BD01F0004545F0FE41F3
:1004F00041F470014FF0000030BD7FEA645C1ABF28
:10050000194610467FEA655C1CBF0B46024650EA5E
:10051000013406BF52EA033591EA030F41F400218A
:1005200030BD00BF90F0000F04BF0021704730B510
:100530004FF4806404F132044FF000054FF00001E5
:1005400050E700BF90F0000F04BF0021704730B5A6
:100550004FF4806404F1320410F0004548BF40427B
:100560004FF000013EE700BF42004FEAE2014FEAD0
:1005700031014FEA02701FBF12F07F4393F07F4FAB
:1005800081F06051704732F07F4208BF704793F0AE
:100590007F4F04BF41F40021704730B54FF46074C1
:1005A00001F0004521F000411CE700BF50EA0102C4
:1005B00008BF704730B54FF000050AE050EA01026D
:1005C00008BF704730B511F0004502D5404261EBDD
:1005D00041014FF4806404F132045FEA915C3FF41E
:1005E000D8AE4FF003025FEADC0C18BF03325FEABB
:1005F000DC0C18BF033202EBDC02C2F1200300FA6C
:1006000003FC20FA02F001FA03FE40EA0E0021FA90
:1006100002F11444BDE600BF70B54FF0FF0C4CF47E
:10062000E06C1CEA11541DBF1CEA135594EA0C0F30
:1006300095EA0C0F00F0DEF82C4481EA030621EA6B
:100640004C5123EA4C5350EA013518BF52EA0335A6
:1006500041F4801143F4801338D0A0FB02CE4FF058
:100660000005E1FB02E506F00042E0FB03E54FF088
:100670000006E1FB03569CF0000F18BF4EF0010E80
:10068000A4F1FF04B6F5007F64F5407404D25FEA7C
:100690004E0E6D4146EB060642EAC62141EA55512F
:1006A0004FEAC52040EA5E504FEACE2EB4F1FD0C71
:1006B00088BFBCF5E06F1ED8BEF1004F08BF5FEAEF
:1006C000500E50F1000041EB045170BD06F00046A1
:1006D00046EA010140EA020081EA0301B4EB5C044E
:1006E000C2BFD4EB0C0541EA045170BD41F4801146
:1006F0004FF0000E013C00F3AB8014F1360FDEBF6B
:10070000002001F0004170BDC4F10004203C35DA46
:100710000C341BDC04F11404C4F1200500FA05F3C9
:1007200020FA04F001FA05F240EA020001F000426A
:1007300021F0004110EBD37021FA04F642EB0601E0
:100740005EEA430E08BF20EAD37070BDC4F10C040A
:10075000C4F1200500FA04F320FA05F001FA04F2CE
:1007600040EA020001F0004110EBD37041F10001BA
:100770005EEA430E08BF20EAD37070BDC4F12005C5
:1007800000FA05F24EEA020E20FA04F301FA05F22D
:1007900043EA020321FA04F001F0004121FA04F2D5
:1007A00020EA020000EBD3705EEA430E08BF20EAA5
:1007B000D37070BD94F0000F0FD101F000464000DF
:1007C00041EB010111F4801F08BF013CF7D041EA61
:1007D000060195F0000F18BF704703F00046520065
:1007E00043EB030313F4801F08BF013DF7D043EA36
:1007F0000603704794EA0C0F0CEA135518BF95EAEC
:100800000C0F0CD050EA410618BF52EA4306D1D172
:1008100081EA030101F000414FF0000070BD50EA91
:10082000410606BF1046194652EA430619D094EA1B
:100830000C0F02D150EA013613D195EA0C0F05D105
:1008400052EA03361CBF104619460AD181EA030159
:1008500001F0004141F0FE4141F470014FF0000011
:1008600070BD41F0FE4141F4780170BD70B54FF0AC
:10087000FF0C4CF4E06C1CEA11541DBF1CEA13552C
:1008800094EA0C0F95EA0C0F00F0A7F8A4EB05040E
:1008900081EA030E52EA03354FEA013100F0888005
:1008A0004FEA03334FF0805545EA131343EA1263CE
:1008B0004FEA022245EA111545EA10654FEA002683
:1008C0000EF000419D4208BF964244F1FD0404F53C
:1008D000407402D25B084FEA3202B61A65EB030598
:1008E0005B084FEA32024FF480104FF4002CB6EB55
:1008F000020E75EB030E22BFB61A754640EA0C00D5
:100900005B084FEA3202B6EB020E75EB030E22BF14
:10091000B61A754640EA5C005B084FEA3202B6EB55
:10092000020E75EB030E22BFB61A754640EA9C0014
:100930005B084FEA3202B6EB020E75EB030E22BFE4
:10094000B61A754640EADC0055EA060E18D04FEAA2
:10095000051545EA16754FEA06164FEAC30343EA42
:1009600052734FEAC2025FEA1C1CC0D111F4801F0F
:100970000BD141EA00014FF000004FF0004CB6E708
:1009800011F4801F04BF01430020B4F1FD0C88BFA7
:10099000BCF5E06F3FF6AFAEB5EB030C04BFB6EBB2
:1009A000020C5FEA500C50F1000041EB045170BDA5
:1009B0000EF0004E4EEA113114EB5C04C2BFD4EBD2
:1009C0000C0541EA045170BD41F480114FF0000E56
:1009D000013C90E645EA060E8DE60CEA135594EAD2
:1009E0000C0F08BF95EA0C0F3FF43BAF94EA0C0FD5
:1009F0000AD150EA01347FF434AF95EA0C0F7FF44A
:100A000025AF104619462CE795EA0C0F06D152EA9D
:100A100003353FF4FDAE1046194622E750EA410681
:100A200018BF52EA43067FF4C5AE50EA41047FF492
:100A30000DAF52EA43057FF4EBAE12E74FF0FF3CF7
:100A400006E000BF4FF0010C02E000BF4FF0010CC8
:100A50004DF804CD4FEA410C7FEA6C5C4FEA430C41
:100A600018BF7FEA6C5C1BD001B050EA410C0CBF90
:100A700052EA430C91EA030F02BF90EA020F0020F2
:100A8000704710F1000F91EA030F58BF994208BF59
:100A900090422CBFD8176FEAE37040F00100704716
:100AA0004FEA410C7FEA6C5C02D150EA013C07D16D
:100AB0004FEA430C7FEA6C5CD6D152EA033CD3D0B8
:100AC0005DF8040B704700BF8446104662468C46B2
:100AD0001946634600E000BF01B5FFF7B7FF0028E5
:100AE00048BF10F1000F01BD4DF808EDFFF7F4FF0E
:100AF0000CBF012000205DF808FB00BF4DF808ED99
:100B0000FFF7EAFF34BF012000205DF808FB00BFBB
:100B10004DF808EDFFF7E0FF94BF012000205DF8DD
:100B200008FB00BF4DF808EDFFF7CEFF94BF012092
:100B300000205DF808FB00BF4DF808EDFFF7C4FF8B
:100B400034BF012000205DF808FB00BF4FEA4102DE
:100B500012F5001215D211D56FF47873B3EB62520F
:100B600012D94FEAC12343F0004343EA505311F036
:100B7000004F23FA02F018BF404270474FF00000C8
:100B8000704750EA013005D111F0004008BF6FF006
:100B9000004070474FF00000704700BF4A0011D27C
:100BA00012F5001211D20DD56FF47873B3EB6252C7
:100BB0000ED44FEAC12343F0004343EA505323FAD3
:100BC00002F070474FF00000704750EA013002D148
:100BD0004FF0FF3070474FF0000070474FEA41027E
:100BE000B2F1E04324BFB3F5001CDCF1FE5C0DD98B
:100BF00001F0004C4FEAC0024CEA5070B2F1004FD5
:100C000040EB830008BF20F00100704711F0804FD7
:100C100021D113F13872BCBF01F00040704741F49C
:100C200080114FEA5252C2F11802C2F1200C10FAA0
:100C30000CF320FA02F018BF40F001004FEAC12384
:100C40004FEAD32303FA0CFC40EA0C0023FA02F328
:100C50004FEA4303CCE77FEA625307D150EA0133FE
:100C60001EBF4FF0FE4040F44000704701F00040CE
:100C700040F0FE4040F40000704700BF53B94AB94D
:100C8000002908BF00281CBF4FF0FF314FF0FF3094
:100C900000F06EB9ADF1080C6DE904CE00F006F875
:100CA000DDF804E0DDE9022304B070472DE9F047E8
:100CB000089D04468C46002B40F083808A421746EC
:100CC00047D9B2FA82F242B1C2F1200024FA00F010
:100CD0009140974040EA010C94404FEA1748230C9A
:100CE000BCFBF8F61FFA87FE08FB16C143EA014376
:100CF00006FB0EF1994209D9FB1806F1FF3080F08E
:100D00001981994240F21681023E3B445B1AA4B21B
:100D1000B3FBF8F008FB103344EA034400FB0EFE7B
:100D2000A64509D93C1900F1FF3380F00581A6459D
:100D300040F2028102383C4440EA0640A4EB0E0433
:100D400000261DB1D4400023C5E900433146BDE86B
:100D5000F08702B9FFDEB2FA82F2002A50D1CB1B33
:100D60004FEA174E1FFA87F80126B3FBFEFC210C51
:100D70000EFB1C3341EA034108FB0CF38B4207D9FD
:100D800079180CF1FF3002D28B4200F2E9808446E0
:100D9000C91AA3B2B1FBFEF00EFB101143EA0144E5
:100DA00008FB00F8A04507D93C1900F1FF3302D237
:100DB000A04500F2D9801846A4EB080440EA0C4094
:100DC000BFE78B4209D9002D00F0B1800026C5E9AC
:100DD000000130463146BDE8F087B3FA83F6002EB5
:100DE0004AD18B4202D3824200F2B880841A61EB6E
:100DF000030101208C46002DA8D0C5E9004CA5E7D1
:100E0000C2F1200320FA03F6974001FA02F04FEAFC
:100E1000174ED9403043030CB1FBFEF61FFA87F89A
:100E20000EFB161143EA014306FB08F1994204FA4E
:100E300002F409D9FB1806F1FF3C80F08D8099423D
:100E400040F28A80023E3B445B1A81B2B3FBFEF063
:100E50000EFB103341EA034100FB08F38B4207D934
:100E6000791800F1FF3C73D28B4271D902383944B2
:100E7000CB1A40EA064678E7C6F1200C03FA06F4DE
:100E800022FA0CF31C4320FA0CF701FA06F34FEA9E
:100E9000144E21FA0CF11F433B0CB1FBFEF91FFA73
:100EA00084F80EFB191143EA014109FB08FA8A454F
:100EB00002FA06F200FA06F308D9611809F1FF30C8
:100EC00048D28A4546D9A9F102092144A1EB0A0179
:100ED000BFB2B1FBFEF00EFB101147EA014700FB69
:100EE00008F8B84507D9E71900F1FF312ED2B84507
:100EF0002CD90238274440EA0940A7EB0807A0FB99
:100F000002894F45C64649461AD317D05DB1B3EBA7
:100F10000E0267EB010707FA0CFCF2404CEA0202F2
:100F2000F740C5E9002700263146BDE8F0872E4688
:100F300028460BE70646E9E61846FDE64345E5D2B6
:100F4000B8EB020E69EB04010138DFE70846D2E78F
:100F500060468DE78146B9E7664675E730464AE761
:100F6000ACF1020C394413E702383C4424E700BFDB
:100F7000704700BF0000000038B5414C2278414B5B
:100F800003EB8203404909681960404803784049EF
:100F900001EB83013F4D2D680D600132D2B222700A
:100FA0000133DBB20370142A07D0142B08D00023BE
:100FB00007EE103A07EE903A1DE000212170F4E7A9
:100FC000324B00221A70F2E72E4A02EB8302D2ED76
:100FD000006AF8EEE77A77EEA67AFDEEE77A2C4A19
:100FE00002EB8302D2ED006AB8EEC77A37EE267ABA
:100FF000BDEEC77A0133132BE6DD274B17EE102A1F
:1010000083FB022117EE102AD217C2EBE10207EE92
:10101000102AB8EEC77A214A82ED007A17EE902A9C
:1010200083FB023217EE903ADB17C3EBE20307EEC5
:10103000903AF8EEE77A1A4BC3ED007A194B18682C
:10104000FFF792FA0CA3D3E90023FFF775FD10B167
:10105000144B00221A60134BD3ED007AF5EEC07AE0
:10106000F1EE10FA04D40F4B1A680F4B1A6038BD1A
:101070000E4A1A60F7E700BF66666666667E7640CF
:101080000C080020BC070020E80900207808002098
:10109000280800206C1E0020676666662008002075
:1010A000B40700207C0800209807002033F3B343E6
:1010B000034B1A6800235362536A8342FCD3704780
:1010C0006C0F00200023034A1370034A5363936399
:1010D000704700BFF00600200004004008B5324B06
:1010E000D3ED007AFDEEE77A304B93ED007ABDEE5A
:1010F000C77A17EE102A17EE903A9A1A2C4880FBFE
:1011000002139918D317C3EB21234FF4B47101FBD9
:10111000132303F5077380FB0320C218D817C0EB15
:10112000222001FB1030B43800B2FFF70BFA002286
:10113000204BFFF771FAFFF709FD00B2002802DB30
:101140000BDD012301E04FF0FF33B0F57A7F06DCC1
:1011500010F57A7F05DA184803E00023F5E74FF42D
:101160007A70002B0ADD0028B8BF404280B240F6FA
:101170001F52101A114B9863DA6308BD002B07DB6E
:10118000002BFAD10D4B40F61F529A63DA63F4E755
:101190000028B8BF404280B240F61F52101A074BD9
:1011A0009A63D863E9E700BF980700209C070020F6
:1011B000B7600BB600005E4018FCFFFF000800405F
:1011C000064B1978064A117007221A70054B002247
:1011D0005A639A63DA631A64704700BFB606002048
:1011E0008502002000080040F0B58BB00024059473
:1011F000069407940894099400942E4B1A6B42F0BD
:1012000004021A631A6B02F004020092009A01941D
:101210001A6B42F080021A631A6B02F0800201928C
:10122000019A02941A6B42F001021A631A6B02F0DF
:1012300001020292029A03941A6B42F002021A63AC
:101240001A6B02F002020392039A04941A6B42F0A2
:1012500008021A631B6B03F008030493049B164FE8
:1012600022464FF48061384604F0A7FD134E224613
:101270000121304604F0A1FD4FF4807305930694DC
:10128000079405A90E4804F00DFC4FF48063059304
:10129000012506950794089405A9384604F002FC38
:1012A000059506950794089405A9304604F0FAFBC5
:1012B0000BB0F0BD0038024000080240000C0240B4
:1012C0000000024010B582B000240094164B1A6B47
:1012D00042F480021A631A6B02F480020092009AB0
:1012E00001941A6B42F400121A631B6B03F400138F
:1012F0000193019B22462146102004F0DDFF1020BF
:1013000005F00EF822462146382004F0D5FF38209B
:1013100005F006F8224621463A2004F0CDFF3A2097
:1013200004F0FEFF02B010BD0038024008B50548C9
:10133000054B03600223436040F6FF73836006F0B1
:101340000FF908BD880A00200030004000B583B0C6
:1013500020230093044B054A0521054809F042F972
:1013600003B05DF804FB00BF080700202400002044
:10137000B80F002008B5094B1978094A11700822E6
:101380001A70084B40F61F525A639A63DA631A6464
:10139000FA2005F053F8FFF713FF08BDB60600204A
:1013A000850200200008004008B5064B40F61F5299
:1013B0005A639A6340F6B83005F040F8FFF782FEB2
:1013C00008BD00BF0004004010B5234B1978234A24
:1013D000117000221A70224B586B9A6B1044DA6B12
:1013E00010441B6C18444008FFF7ACF818A3D3E96D
:1013F0000023FFF711F9FFF7A9FB044620B926E007
:10140000012005F01BF8053CB4F57A7F19DD231F98
:10141000B3F57A7F15DB124A526B0AB1104A536357
:101420000F4A926B0AB10E4A93630D4AD26B0AB10E
:101430000B4AD3630A4A126C002AE1D0084A1364AB
:10144000DEE7074B00225A639A63DA631A6410BD21
:10145000CDCCCCCCCCCCEC3FB60600208502002015
:101460000008004038B504460D460E4B02221A70A3
:10147000AC420FD2631C9BB29D420BD90A4A536304
:1014800000209063D0631364012004F0D7FF02347E
:10149000A4B2EDE74FF4FA6004F0D0FFFFF794FF39
:1014A00038BD00BFB6060020000800402DE9F0411D
:1014B00086B0214D32260296012401940DF11703C6
:1014C000009323467522D021284605F0D7FE14202C
:1014D00004F0B4FF4FF000088DF8168002960194D6
:1014E0000DF11607009723466B22D021284605F000
:1014F00013FE142004F0A2FF07238DF81630029685
:101500000194009723461922D021284605F004FEB5
:10151000142004F093FF8DF8168002960194009732
:1015200023461B22D021284605F0F6FD142004F0A6
:1015300085FF06B0BDE8F081940A002010B504468E
:10154000FEF750FE642382B22146024807F09BF862
:1015500010BD00BF201E002010B50446FEF742FE5D
:10156000642382B22146024807F08DF810BD00BF07
:10157000BC18002010B500240AE020230C4A02EB1E
:10158000C4120C4901EBC4110B4809F03DF80134B9
:10159000072CF2D90023FF2B09DC054A02EB83025A
:1015A0001168044A02EB830211600133F3E710BDB6
:1015B000B002002084190020B80F002010B50024CC
:1015C0000AE020230C4A02EBC4120C4901EBC411BF
:1015D0000B4809F019F80134072CF2D90023FF2B2E
:1015E00009DC054A02EB83021168044A02EB83021C
:1015F00011600133F3E710BDB00200202C0B002076
:10160000B80F002038B52DED068B002319460EE0EB
:10161000864A32F91320A2F2F342854800EB81009A
:1016200007EE902AF8EEE77AC0ED007A0133B3F5C1
:10163000007F12DA13F0010FEAD07C4A32F913204E
:10164000A2F2F3427B4800EB810007EE902AF8EE0D
:10165000E77AC0ED007A0131E8E7FFF78BFFFFF78B
:10166000ADFF754B1B78012B12D00024254640E0BE
:101670006F4A02EB83021168704A02EB8302116029
:101680000133DBB25F2BF3D96B4B00221A70ECE70E
:101690000023F7E720EE080A08F078FC89EE80AA1C
:1016A00029EE080A08F072FC88EE808A644BD3EDBC
:1016B000007AF4EECA7AF1EE10FA58D9614BD3ED04
:1016C000007AF4EECA7AF1EE10FA6BDA5C4BD3EDE5
:1016D000007AF4EEC87AF1EE10FA75D9594BD3EDD1
:1016E000007AF4EEC87AF1EE10FA80F289800134C3
:1016F000A4B25F2C00F29780002D40F09480204629
:1017000023469FED518A0022B0EE489AF0EE488AB7
:10171000B0EE480AF0EE489A00F15E019942B9DB5A
:10172000434901EB830191ED007A444901EB8201C9
:10173000D1ED007A67EE276A79EEA69A27EE077A4E
:1017400030EE070A3B4901EB830191ED007A67EE29
:10175000876A78EEA68A27EE077A39EE079A67EE4F
:10176000A77A38EE278A013292B20133D4E7374B99
:1017700001221A7004F05CFE354B1860354B1B7863
:101780005BB9354A138801339BB2138042F20F7262
:10179000934202D92F4B01221A70304A1368013349
:1017A000136093E7294B02221A7004F041FE284B84
:1017B0001860284B1B7813B9274B00221A80284A3F
:1017C00013680133136081E7264B01221A7004F07D
:1017D0002FFE1F4B18601F4B1B785BB91E4A1388E6
:1017E00001339BB2138042F20F72934202D9194B1C
:1017F00001221A701C4A136801331360012576E731
:10180000184B02221A7004F013FE114B1860114B92
:101810001B7813B9104B00221A80144A1368013345
:101820001360012563E7BDEC068B38BD5C1000201A
:10183000841900202C0B0020B2060020400000205C
:1018400014000020180000200000000062020020A8
:10185000B40F002084020020B4060020D806002027
:10186000DC06002063020020E0060020E4060020E1
:1018700010B5FFF7C7FE04F0DBFD1A4B1B68C01A5A
:10188000194B1A784FF47A7303FB02F398420CD287
:10189000164B1B78012B14D0022B1ED0144B1B7837
:1018A000022B1AD00024204610BD00230F4A1370CB
:1018B0000F4A13700F4A062111700F4A1370022449
:1018C000F1E70B4A1478012CE6D10B4B01221A7078
:1018D00004F0AEFD094B1860E5E7074B02221A70D1
:1018E0000024E0E7B40F0020000000206202002086
:1018F00063020020B6060020B0060020AC020020E3
:101900002DE9F04104460F469046104B03221A7011
:10191000002501E00434A4B2BC4212D2E31C9BB205
:101920009F420ED90A48436300268663C363066458
:10193000012004F083FD0135ADB2FFF799FF454565
:10194000E8D3FFF741FDBDE8F08100BFB6060020F7
:10195000000800402DE9F04104460F469046104B28
:1019600002221A70002501E00434A4B2BC4212D253
:10197000E31C9BB29F420ED90A484363002686634C
:10198000C6630364012004F059FD0135ADB2FFF7D1
:101990006FFF4545E8D3FFF717FDBDE8F08100BFB5
:1019A000B6060020000800402DE9F04104460F462D
:1019B0009046104B04221A70002501E00434A4B2B2
:1019C000BC4212D2E31C9BB29F420ED90A480026A9
:1019D00046638363C6630364012004F02FFD013571
:1019E000ADB2FFF745FF4545E8D3FFF7EDFCBDE895
:1019F000F08100BFB60600200008004030B587B077
:101A00000024019402940394049405940094234DBB
:101A1000224601A9284605F0F6FF224669462846D7
:101A200006F019F89DF804301D4A1278934207D346
:101A30001C4A1278934203D21B4B1B78012B01D016
:101A400007B030BD194B1B78012BF9D11848FFF7AF
:101A500083FD22460121174804F0AFF941F2883096
:101A600004F0ECFC40F61F514FF4FA60FFF7FAFC6B
:101A70004FF4FA7240F61F514FF4FA60FFF740FF3F
:101A80000A4A14700C4A14700C4A1480064A1470E6
:101A90000B4B00200021C3E90001D1E760190020B1
:101AA0002100002020000020640200207802002095
:101AB00004AB0008000C024084020020B4060020A1
:101AC000A807002030B587B0002401940294039445
:101AD0000494059400940B4D224601A9284605F074
:101AE00092FF22466946284605F0B5FF9DF804207E
:101AF000054B1B789A4202D3044B01221A7007B09F
:101B000030BD00BF6019002020000020B007002079
:101B100010B50446034805F09EFDB0FBF4F304FB4A
:101B2000130010BDC41D002010B51B4B01221A70FC
:101B30001A48FFF711FD4FF47A70FFF7E9FFB0F58F
:101B4000FA7F13D34FF47A7440F659239C4221D87C
:101B500004F06EFC124B1860124B00225A639C6317
:101B6000022004F06BFC0134A4B2EDE74FF47A7468
:101B700040F659239C420DD804F05AFC084B1860DB
:101B8000084B5C6300229A63022004F057FC013486
:101B9000A4B2EDE710BD00BFF006002020AB0008A6
:101BA000B40F00200004004070B584B001258DF80A
:101BB00008508DF8090083238DF80A300A4C6426FA
:101BC0000096032302AA9021204605F075F8002311
:101BD0008DF8083000962B4602AA9021204605F089
:101BE0006BF804B070BD00BF340A002000B585B0AA
:101BF00064230093022302AA9021084805F018F9F3
:101C00009DF808309DF8090040EA0320B0F5004F28
:101C100000D9002005B05DF804FB00BF340A0020A5
:101C200010B52DED028BB04B1C780A2C07D0AF4BB2
:101C30001B780A2B03D0AE4B1B780A2B02D1AD4B7D
:101C400001221A70AC4B1B78C12B05D0E12B00F0A0
:101C50009F80BDEC028B10BDA84B1860FEF772FC94
:101C60000022A74BFEF7D8FC99A3D3E90023FEF787
:101C70001BFB0022A34BFEF7F9FDFEF7AFFF08EEBA
:101C8000100AB0EEC88AA04B1B7813B99F4B83EDA6
:101C9000008A9E4BD3ED007A38EE678AB0EEC88A90
:101CA0009B4B83ED008A9B4B03EB840383ED008AFF
:101CB0000134E4B28C4B1C70142C03D00023DFEDF4
:101CC000967A0AE000221A70F8E7924A02EB830241
:101CD00092ED007A77EE877A0133132BF5DDF3EE80
:101CE000046A87EEA67A8D4B83ED007A17EE100A10
:101CF000FEF73AFC78A3D3E90023FEF7FFFE10B10C
:101D0000864B874A1A6018EE100AFEF72DFC74A362
:101D1000D3E90023FEF706FF60B9804BD3ED007ACC
:101D2000804B93ED007A67EE877AB4EEE78AF1EEA6
:101D300010FA8EDB7C4B1B78012B8AD16D4B1B7804
:101D4000012B86D14FF48071784804F02FF80128D8
:101D50003FF47FAFFFF734FA4FF4FA7004F06EFBF4
:101D60004FF4C87240F61F514FF4FA60FFF7F2FDCE
:101D70004FF4FA7004F062FB4FF4967240F61F5174
:101D80004FF4FA60FFF710FE5A4B00221A7060E71A
:101D9000674B1860FEF7D6FB0022594BFEF73CFC60
:101DA0004BA3D3E90023FEF77FFA0022554BFEF741
:101DB0005DFDFEF713FF08EE100AB0EEC88A524B25
:101DC0001B7813B95B4B83ED008A5A4BD3ED007A35
:101DD00038EE678AB0EEC88A574B83ED008A4349D4
:101DE0000B78564A02EB830282ED008A0133DBB2A4
:101DF0000B70142B03D00023DFED477A0AE000229A
:101E00000A70F8E74D4A02EB830292ED007A77EE12
:101E1000877A0133132BF5DDF3EE046A87EEA67A99
:101E2000474B83ED007A17EE100AFEF79DFB2AA3BD
:101E3000D3E90023FEF762FE10B1414B384A1A6025
:101E400018EE100AFEF790FB25A3D3E90023FEF756
:101E500069FE68B93A4BD3ED007A324B93ED007AC4
:101E600067EE877AB4EEE78AF1EE10FAFFF6F1AE8C
:101E70002D4B1B78012B7FF4ECAE1E4B1B78012BF6
:101E80007FF4E7AE4FF48071284803F08FFF0128FC
:101E90003FF4DFAEFFF794F94FF4FA7004F0CEFA96
:101EA0004FF4C87240F61F514FF4FA60FFF752FD2D
:101EB0004FF4FA7004F0C2FA4FF4967240F61F51D4
:101EC0004FF4FA60FFF71CFD0A4B00221A70C0E6BF
:101ED000000000000088A3409A9999999999B93F08
:101EE000333333333333D33F94020020A402002032
:101EF0007402002079020020010000208C020020E2
:101F00000000C83F000059408402002090020020D9
:101F1000E40900209409002000000000880200204D
:101F2000CDCCCC3D0C000020B606002000000240C5
:101F30009C020020A0020020641E00204409002012
:101F4000980200200000000038B55F4B1878C128C7
:101F500011D0E1281DD0F12829D0D12835D004F0A6
:101F600067FA5A4B1B68C01A132803D9584B1B78C1
:101F7000012B38D038BD564B1B78002BE9D1FFF729
:101F800013FE534B01221A7004F052FA4F4B1860A3
:101F9000E5E74F4B1B78002BDDD1FFF705FE4C4BDF
:101FA00001221A7004F044FA484B1860D7E7484BF6
:101FB0001B78002BD1D1FFF7F7FD454B01221A709A
:101FC00004F036FA414B1860C9E7414B1B78002BEF
:101FD000C5D1FFF7E9FD3E4B01221A7004F028FA43
:101FE0003A4B1860BBE7FFF701FE0546FFF718FE06
:101FF000354B1C78F12C0DD0D12C3FD0C12C4FD0BB
:10200000E12C54D0F12C56D0D12C4CD12E4BC122E6
:102010001A7048E02F4B1D602846FEF793FA002205
:102020002D4BFEF7F9FA26A3D3E90023FEF73CF97E
:1020300000222A4BFEF71AFCFEF7D0FD07EE900AAD
:10204000F0EEE77A264B1B7813B9264BC3ED007AE6
:10205000244B93ED007A77EEC77AF0EEE77A224BC5
:10206000C3ED007A214B93ED007AF4EEC77AF1EEDE
:1020700010FAC3DB1E4B00221A707BE71D4B1D605C
:102080002846FEF75FFA0022134BFEF7C5FA00223E
:10209000194BFEF7C1FAFEF7A1FD184B1860ADE72A
:1020A000094BE1221A700A4B00221A7062E7064BB4
:1020B000F1221A70F7E7044BD1221A70F3E700BF40
:1020C000000000000088A34001000020540200200E
:1020D00075020020680200200000C83F000059403F
:1020E00084020020700200206C0200200400002006
:1020F0000A000020D4060020000014401C0000202C
:1021000038B52F4B1B78012B0BD02E4B1B78012B96
:1021100007D04FF480712C4803F048FE01281ED0F0
:1021200038BD2A4B93ED007ADFED297AB4EEE77AD9
:10213000F1EE10FAF4DB274B1B78002BF0D1254B86
:1021400001221A7000224FF48061234803F035FE0B
:102150002248FFF701FA1A4B00221A70E0E7204BE1
:10216000188804F06BF900241E4B1C70FFF728F848
:10217000FFF71AF91C48FFF7EFF942F2107004F06C
:102180005DF901221146194803F017FE1848FFF7C0
:10219000E3F901250A4B1D700A4B1D7041F288308E
:1021A00004F04CF92A464FF480610B4803F005FE19
:1021B0001048FFF7D1F9104B1C70104B1C70AFE7A3
:1021C0007602002078020020000002401C0000205F
:1021D0000050C346640200200008024034AB0008EF
:1021E00008000020790200204CAB0008000C0240DF
:1021F00060AB000878AB0008B0070020B1070020F2
:10220000F8B5144B93ED007ADFED137AB4EEE77A6C
:10221000F1EE10FA1DD5114B1B78012B19D0104E81
:10222000104D06F1300734460FCC28606960AA6073
:10223000EB6026461035BC42F5D10A4C2046FFF72C
:102240007DF92046FFF788F9044B01221A70FEF74A
:1022500039FFF8BD1C00002000E0AB46B0070020AD
:1022600090AB0008E80A00207C4B00221A707C4BDF
:102270001B784BB913467B4A13607B4A13607B4A39
:1022800013607B4A136070472DE9F04FB1B0002412
:102290002B942C942D942E942F942A94754D224691
:1022A0002BA9284605F0AFFB22462AA9284605F0AF
:1022B000D2FBDFF81C92D9F80000FEF755F9024670
:1022C0000B466D4E6D49304606F024FD3046FFF753
:1022D00043F9DFF800A2DAF80000FEF745F90246FC
:1022E0000B466749304606F015FD3046FFF734F9D6
:1022F000DFF8E4B1DBF80000FEF736F902460B46E2
:102300006049304606F006FD3046FFF725F95E4F7E
:1023100097ED007ADFED5D7AC7EE277A17EE900A27
:10232000FEF722F902460B465949304606F0F2FC08
:102330003046FFF711F9574B1A785749304606F0E7
:10234000E9FC3046FFF708F9494D2B680193DFF8A7
:102350001881D8F800300093444B1B68414A12683A
:102360004E49304606F0D6FC3046FFF7F5F84C4BA8
:102370001A784C49304606F0CDFC3046FFF7ECF8B1
:10238000494B1868FEF7F0F8CDE90801474B18688B
:10239000FEF7EAF8CDE90201454B1868FEF7E4F8CC
:1023A000CDE90001DDE908234249304606F0B2FCE0
:1023B0003046FFF7D1F89DF8AE3000939DF8AD3070
:1023C0009DF8AC203C49304606F0A4FC3046FFF7AF
:1023D000C3F89DF8AA3000939DF8A9309DF8AB2072
:1023E0003649304606F096FC3046FFF7B5F83868B7
:1023F000FEF7BAF806460F46314B1B780793314B70
:102400001B780693DBF80000FEF7AEF8CDE9040177
:10241000DAF80000FEF7A8F8CDE90201D9F80000CB
:10242000FEF7A2F8CDE9000132463B4626490AA84C
:1024300006F070FC0B4A1460C8F800400B4B1C609F
:102440002C600AA8FDF7CEFE642382B20AA91F48B9
:1024500006F019F931B0BDE8F08F00BFB1060020D9
:1024600077020020D8060020DC060020E0060020CD
:10247000E406002060190020E80A0020C0AB000834
:10248000CCAB00082CAF00081C00002000007A44F0
:10249000D8AB000876020020E4AB0008FCAB0008D3
:1024A0006402002030AC0008200800207C080020D6
:1024B000B40700204CAC000870AC000884AC0008E5
:1024C000B6060020B006002098AC0008201E0020B0
:1024D000E4090020641E00206C02002000000000BF
:1024E0002DE9F04D2DED028BFFF7C2F903F0A0FFAF
:1024F000FEF718F8844BD3E90023FDF7D5FE064616
:102500000F46824BC3E90067814B1C78022C00F018
:10251000A580012C00F0B1807E4BD3E900237E49D9
:10252000D1E90001FDF7C2FE02460B4672A1D1E9D6
:102530000001FDF7B9FE04460D46784BC3E900459E
:1025400002460B4630463946FEF766F8DFF8E8816A
:10255000D8E90023FDF7AAFE41EC180BC8E90001F9
:10256000DFF8D881D8E9002320462946FDF79CFEF4
:1025700032463B46FEF77AF982468B46684BC3E902
:1025800000AB684B1868FDF7EFFF22462B46FEF7BD
:1025900043F806460F46644B1868FDF7E5FF53EC19
:1025A000182BFEF739F802460B4630463946FDF740
:1025B0007DFE06460F465D4B1868FDF7D5FF524677
:1025C0005B46FEF729F802460B4630463946FDF7D2
:1025D0006DFE41EC180BC8E9004503F029FFFDF73B
:1025E000A1FF494BC3E90001B0EE480AF0EE680ACA
:1025F00007F07CFC57EC106B3FA3D3E9002310EEEF
:10260000100A3946FDF752FEFEF7A0FA044632469C
:102610003B4639A1D1E90001FDF746FEFEF796FAE7
:10262000B4F5486F01DD4FF44864B0F5486F01DD43
:102630004FF44860B4F57A7F01DA4FF47A74B0F55C
:102640007A7F01DA4FF47A70314B1B78022B23D05A
:10265000012B38D0BDEC028BBDE8F08D2E4D02462B
:102660000B46D5E90001FDF71FFEC5E90001294B26
:1026700000200021C3E900014BE7264C32463B46CF
:10268000D4E90001FDF710FEC4E90001224B00204F
:102690000021C3E900013FE7254A1278022A06D04B
:1026A000012A0BD0234AD46300211164D0E7214AC8
:1026B00040F6FC01516300219163F3E71D4A0021BC
:1026C00051639063EEE71B4D00266E63AC63FDF72C
:1026D00039FF0BA3D3E90023FDF79EFF41EC100B5C
:1026E00007F004FC51EC100BFEF758FAE8632E6477
:1026F000B0E700BFAFF300800000000000E0A5409D
:10270000666666666666EE3F10080020F8060020E2
:1027100063020020C8060020C00600200007002039
:10272000180800203C000020A007002038000020EE
:102730006202002000080040E8060020A8070020F0
:1027400010B590B0002400943C22214601A806F068
:10275000D9FA22463F2A42D8334B9B5C0D2B02D03C
:102760000132D2B2F6E73049684606F0BDFA6A4651
:102770002E492F4806F0CEFA2E496846FDF728FD6F
:1027800078B32D496846FDF723FD18B92B4B1B780C
:10279000012B31D02A496846FDF71AFD18B9274B9D
:1027A0001B78012B2CD027496846FDF711FD18B97D
:1027B000224B1B78012B27D023496846FDF708FDE3
:1027C00010B9224B01221A7021496846FDF700FD1D
:1027D000F0B11748FEF7C0FE1E4B00221A7010B071
:1027E00010BD1D4B01221A701C4C2046FEF7A6FEA0
:1027F0002046FEF7B1FEC4E7194B01221A70C9E763
:10280000184B01221A70CEE7174B01221A70D3E73A
:10281000114B00221A70154C2046FEF78FFE204601
:10282000FEF79AFED5E700BF841D002000AD00082A
:10283000E80A002008AD00081CAD0008B60600201C
:1028400028AD000834AD000840AD0008B0070020F6
:1028500048AD0008D10600200A0000200CAD000899
:10286000590200205A0200205802002050AD0008F2
:1028700008B50C4B1A680C4B1A60012800D008BD33
:1028800003F074FD094B00221A605A609A6001231C
:1028900083F31088064B83F30888034B1B68984723
:1028A000FEE700BF0400FF1FB806002010E000E0B4
:1028B0000010002070B582B004460E461546002276
:1028C0000192184604F09FFF8DF80400304604F092
:1028D0009AFF8DF80500284604F095FF8DF8060054
:1028E000204604F090FF8DF80700012201A902485C
:1028F00005F013F802B070BD6019002070B586B005
:102900000E46154600240194029403940494059401
:1029100004F079FF8DF80400304604F074FF8DF860
:102920000500284604F06FFF8DF8060004944FF46C
:1029300080230593012201A9024804F06FFF06B02D
:1029400070BD00BF60190020F0B59DB000240C944C
:102950003C2221460DA806F0D5F922463F2A00F276
:102960001C81B34B9B5C0D2B02D00132D2B2F5E738
:10297000AF4B1B780D2B0ED0AD490CA806F0B4F967
:10298000AC4C0CAAAC49204606F0C4F92046FEF730
:10299000E3FD00230FE0A94B93E803000C90ADF892
:1029A0003410090C8DF83610EAE71CA8014401F830
:1029B000402C0133DBB23F2B0CD819461CAA1A4419
:1029C00012F8402C9E48105C00F003000228ECD165
:1029D000203AEAE79B490CA8FDF7FAFB002800F033
:1029E000E18099490CA8FDF7F3FB002800F0DE8098
:1029F00096490CA8FDF7ECFB002800F0E180944913
:102A00000CA8FDF7E5FB002800F0E18091490CA837
:102A1000FDF7DEFB002800F0E1808F490CA8FDF7F0
:102A2000D7FB002800F0F0808C490CA8FDF7D0FB04
:102A30000446002800F0F38089490CA8FDF7C8FB84
:102A40000446002800F0628186490CA8FDF7C0FB0F
:102A5000002800F0798184490CA8FDF7B9FB002813
:102A600000F0798181490CA8FDF7B2FB002800F045
:102A700082817F490CA8FDF7ABFB002800F08B8119
:102A80007C490CA8FDF7A4FB002800F098817A4946
:102A90000CA8FDF79DFB002800F0AE8177490CA83B
:102AA000FDF796FB38B9764B00225A634FF4FA6172
:102AB0009963D9631A6473490CA8FDF789FB38B987
:102AC0006F4B4FF4FA625A6300219963D9631A6419
:102AD00008226D490CA806F06BF9002800F08F81E0
:102AE00008226A490CA806F063F9002800F0A581C5
:102AF000062267490CA806F05BF9002800F0B681B1
:102B0000062264490CA806F053F9002800F0BA81A7
:102B1000062261490CA806F04BF9002800F0BE819E
:102B200046490CA8FDF754FB002800F0C3815B491F
:102B30000CA8FDF74DFB002800F0C68158490CA8F1
:102B4000FDF746FB002800F0C98156490CA8FDF7A7
:102B50003FFB002800F0CB81112253490CA806F05E
:102B600027F9002800F0E0810F2250490CA806F058
:102B70001FF9002800F0E6814D490CA8FDF728FB5D
:102B8000002800F0ED814B490CA8FDF721FB00283F
:102B900000F03C82264B00221A60474B00221A703C
:102BA0001DB0F0BD4548FEF7D7FC1AE7214C444A5A
:102BB0002149204606F0AEF82046FEF7CDFC17E787
:102BC000404B01221A704048FEF7C6FC17E73D4B08
:102BD00000221A703D48FEF7BFFC17E73C4B93ED0F
:102BE000007ADFED3C7AC7EE277A17EE900AFDF700
:102BF000BBFC02460B460F4C3749204606F08AF8CC
:102C00002046FEF7A9FC08E73448FEF7A5FC4FF480
:102C1000FA7003F013FC0120FFF72AFE04E73048A6
:102C2000FEF79AFC4FF4FA5003F008FC6BE000BF8B
:102C30002C0F0020E80A002000AD000860AD00085D
:102C4000EDB7000868AD00089CAD0008A4AD000811
:102C5000C4AD0008E4AD0008ECAD000810AE0008FB
:102C600070AE0008B0AE0008C4AE0008DCAE0008CC
:102C7000F0AE000808AF000838AF000844AF000805
:102C80000008004058AF00086CAF00088CAF000887
:102C9000A8AF0008BCAF0008C4AF000814B000081B
:102CA00050B0000880B00008ACB00008CCB00008FC
:102CB000DCB0000804B10008D006002070AD0008A8
:102CC000BCB7000877020020B0AD0008D0AD000806
:102CD0001C00002000007A4430AF0008F4AD00086A
:102CE0001CAE0008A54B03EB84031868FDF73CFC01
:102CF00002460B46A24DA349284606F00BF828468B
:102D0000FEF72AFC01345F2CECDD95E69E48FEF7C9
:102D100023FC9E48FEF720FC10E0984B03EB840355
:102D20001868FDF721FC02460B46954D9849284648
:102D300005F0F0FF2846FEF70FFC01345F2CECDDB8
:102D40009448FEF709FC7FE6934B01221A709348E2
:102D5000FEF702FC7FE6924B00225A634FF4FA62C0
:102D60009A6340F6B83003F069FBFEF72DFB8D48FF
:102D7000FEF7F2FB76E68A4B4FF4FA62DA63002242
:102D80001A6440F6B83003F059FBFEF71DFB854886
:102D9000FEF7E2FB6DE68448FEF7DEFB4FF4FA70C7
:102DA00003F04CFBBFF34F8F8049CA6802F4E06226
:102DB0007F4B1343CB60BFF34F8F00BFFDE77D4BCD
:102DC0001868FDF7D1FB04460D466D4E7A4B186826
:102DD000FDF7CAFBCDE90201784B1868FDF7C4FB8B
:102DE000CDE9000122462B467549304605F092FF99
:102DF0003046FEF7B1FB4AE6FEF7E6FA4EE6002360
:102E0000059306930793089308AB039307AB0293CC
:102E100006AB019305AB00930AAB04AA69490CA861
:102E200005F098FF9DF820309DF81C209DF81810A3
:102E30009DF81400FFF73EFD52E60023069307932A
:102E4000089308AB029307AB019306AB00930AAB60
:102E500005AA5D490CA805F07DFF9DF820209DF88E
:102E60001C109DF81800FFF749FD41E60AAB0093DE
:102E700007AB08AA55490CA805F06CFF544B0A9AF9
:102E80001A603DE60AAB009307AB08AA4F490CA8AD
:102E900005F060FF4F4B0A9A1A6039E60AAB0093BF
:102EA00007AB08AA49490CA805F054FF4A4B0A9AF7
:102EB0001A6035E6494B00221A704948FEF74CFB70
:102EC0004848FEF749FB32E6444B01221A70464857
:102ED000FEF742FB454B00221A702FE6444B0122BD
:102EE0001A70FEF7EFF84348FEF736FB2DE6384B35
:102EF0001868FDF739FB04460D46214E364B18681D
:102F0000FDF732FBCDE90201324B1868FDF72CFBCF
:102F1000CDE9000122462B463749304605F0FAFE3E
:102F20003046FEF719FB17E607AB019308AB009399
:102F30000AAB06AA31490CA805F00CFF304B079AE2
:102F40001A7011E608AB019307AB00930AAB06AA0F
:102F50002A490CA805F0FEFE2A4B089A1A700BE6C7
:102F6000074C284B1B78264A12782749204605F043
:102F7000D1FE2046FEF7F0FA05E600BF4000002033
:102F8000E80A002068AE00087CAE0008A0AE000889
:102F9000A4AE0008A8AE0008B2060020BCAE00082F
:102FA00000080040D4AE0008F8AE000800ED00E0D4
:102FB0000400FA05E40900206C020020641E0020D1
:102FC00018AF000878AF000898AF0008B0AF00084D
:102FD0003C000020A0070020380000200A0000204C
:102FE000CCAF0008E4AF00081CB000088402002049
:102FF000B007002060B0000894B00008C0B000081E
:103000002100002020000020F0B00008C94CCA4D6B
:103010000FCD20606160A260E36003CD206161613B
:103020002046FEF799FAC54E06F1200735460FCD2A
:1030300020606160A260E3602E461034BD42F5D18D
:1030400028682060AA88AB79A280A371B94C204679
:10305000FEF782FABA4D05F120072E460FCE20600A
:103060006160A260E36035461034BE42F5D107CD01
:1030700020606160A2602B88A381AE4C2046FEF7E1
:103080006BFAB04D05F120072E460FCE206061602F
:10309000A260E36035461034BE42F5D107CD206012
:1030A0006160A2602A88AB78A281A373A14C2046FC
:1030B000FEF752FAA44D05F120072E460FCE2060F0
:1030C0006160A260E36035461034BE42F5D107CDA1
:1030D00020606160A2602B88A381964C2046FEF799
:1030E0003BFA9A4D05F120072E460FCE2060616015
:1030F000A260E36035461034BE42F5D107CD2060B2
:103100006160A2602B7823738A4C2046FEF724FA74
:103110008F4D05F120072E460FCE20606160A26022
:10312000E36035461034BE42F5D107CD20606160C2
:10313000A2602B7823737F4C2046FEF70DFA854E54
:1031400006F1200735460FCD20606160A260E36084
:103150002E461034BD42F5D107CE20606160A260DA
:103160003388A381734C2046FEF7F6F97A4D05F1BA
:1031700020072E460FCE20606160A260E3603546D6
:103180001034BE42F5D107CD20606160A260694C69
:103190002046FEF7E1F9714E06F1200735460FCDC6
:1031A00020606160A260E3602E461034BD42F5D11C
:1031B00003CE206061605F4C2046FEF7CDF9684E7B
:1031C00006F1300735460FCD20606160A260E360F4
:1031D0002E461034BD42F5D128682060554C20465B
:1031E000FEF7BAF944225F49204605F07DFD2046EE
:1031F000FEF7B2F95C4E06F1300735460FCD206080
:103200006160A260E3602E461034BD42F5D12A8889
:10321000AB782280A370474C2046FEF79DF9534DB2
:1032200005F120072E460FCE20606160A260E360AA
:1032300035461034BE42F5D107CD20606160A260F2
:103240003C4C2046FEF788F9494D05F120072E46F3
:103250000FCE20606160A260E36035461034BE424C
:10326000F5D107CD20606160A2602B782373314CCB
:103270002046FEF771F93F4E06F1300735460FCD77
:1032800020606160A260E3602E461034BD42F5D13B
:1032900028682060AA88AB79A280A371254C2046BB
:1032A000FEF75AF9344E06F1200735460FCD20605F
:1032B0006160A260E3602E461034BD42F5D12A88D9
:1032C000AB782280A3701B4C2046FEF745F92B4DAE
:1032D00005F120072E460FCE20606160A260E360FA
:1032E00035461034BE42F5D103CD206061602B8895
:1032F0002381104C2046FEF72FF9214D05F12007C0
:103300002E460FCE20606160A260E3603546103427
:10331000BE42F5D103CD206061602A88AB7822815E
:10332000A372044C2046FEF717F9164E06F120074B
:103330002AE000BFE80A00200CB1000824B1000810
:103340004CB100087CB10008ACB10008DCB1000849
:103350000CB200083CB200086CB2000898B2000839
:10336000C0B20008F4B2000838B300086CB300081B
:1033700098B30008C8B3000800B4000824B40008DB
:1033800050B400087CB4000835460FCD2060616061
:10339000A260E3602E461034BD42F5D1286820605B
:1033A000AA88AB79A280A3717C4C2046FEF7D4F8A2
:1033B0007B4E06F1200735460FCD20606160A2608C
:1033C000E3602E461034BD42F5D128682060AA88FB
:1033D000AB79A280A371714C2046FEF7BDF8714E07
:1033E00006F1200735460FCD20606160A260E360E2
:1033F0002E461034BD42F5D103CE20606160338883
:103400002381664C2046FEF7A7F8674E06F1300789
:1034100035460FCD20606160A260E3602E46103417
:10342000BD42F5D103CE20606160337823725B4CDE
:103430002046FEF791F85D4E06F1300735460FCD78
:1034400020606160A260E3602E461034BD42F5D179
:1034500003CE2060616033882381504C2046FEF704
:103460007BF8534E06F1300735460FCD2060616082
:10347000A260E3602E461034BD42F5D1286820607A
:10348000AB88A380454C2046FEF766F8494E06F10E
:10349000300735460FCD20606160A260E3602E46A4
:1034A0001034BD42F5D128682060AB88A3803B4C26
:1034B0002046FEF751F8404E06F1300735460FCD55
:1034C00020606160A260E3602E461034BD42F5D1F9
:1034D00028682060AB88A380304C2046FEF73CF87B
:1034E000364D05F130072E460FCE20606160A26098
:1034F000E36035461034BE42F5D107CD20606160EF
:10350000A2602A88AB78A281A373244C2046FEF7E0
:1035100023F82B4D05F120072E460FCE2060616069
:10352000A260E36035461034BE42F5D107CD20607D
:103530006160A2602B782373184C2046FEF70CF8CC
:10354000204D05F120072E460FCE20606160A2605D
:10355000E36035461034BE42F5D103CD2060616092
:103560002A88AB782281A3720C4C2046FDF7F4FF29
:10357000154E06F1300735460FCD20606160A26020
:10358000E3602E461034BD42F5D1286820602B79C7
:1035900023710248FDF7E0FFFFF7FCBAE80A0020BC
:1035A000A4B40008CCB40008F8B4000834B500088E
:1035B00070B50008A8B50008E0B5000818B6000806
:1035C00058B6000888B60008B4B6000808B5024826
:1035D00003F0F2FF08BD00BF880A002008B5FFF71E
:1035E000F5FF024B01221A7008BD00BFB106002092
:1035F0007047000003681B6813F0100F00D170477C
:1036000000B583B000230193074803681A6801924C
:103610005B680193019B05F0A2F8044B01221A702C
:1036200003B05DF804FB00BFBC180020D0060020EA
:1036300003681B6813F0100F00D1704700B583B00A
:1036400000230193074803681A6801925B6801939D
:10365000019B05F084F8044B01221A7003B05DF859
:1036600004FB00BF201E0020D1060020704772B668
:10367000FEE7000000B585B000230093019302939C
:1036800003931A481A4A02604FF480324260836002
:1036900001220261027680F82030C36215498162FE
:1036A000C3600221C16180F83020436101F066FBF4
:1036B000B0B90C23009301230193062302936946BA
:1036C0000A4801F049FD68B90D23009302230193D4
:1036D0006946064801F040FD30B905B05DF804FBCD
:1036E000FFF7C5FFFFF7C3FFFFF7C1FF141000206E
:1036F000002001400100000F08B50A480A4B036092
:103700000A4B436000238360C3604FF48042026130
:1037100043618361C361036203F0D6F900B908BD58
:10372000FFF7A5FF340A002000540040A0860100E6
:1037300008B50A480A4B03600A4B436000238360C4
:10374000C3604FF48042026143618361C3610362DD
:1037500003F0BAF900B908BDFFF789FF940A002009
:1037600000580040A0860100F0B587B01B48FDF767
:10377000F3FE0024019402940394049405941848E1
:1037800003F080FA174D22464FF48061284602F07C
:1037900014FB22464FF40061284602F00EFB4FF462
:1037A000806301930126029602270397049401A9DE
:1037B000284602F077F94FF40063019302960397CD
:1037C000049401A9284602F06DF9304602F036FE55
:1037D000FFF7AEFFFDF76AFE07B0F0BDECB60008DC
:1037E000940A0020000402402DE9F0412DED048BE5
:1037F00086B0322302930623019304AB0093012386
:103800003B22D021544803F039FD002840F09B8032
:103810009DF810309DF8110040EA032000B24F4B94
:1038200018809DF812309DF8135045EA03252DB2FB
:103830004B4B1D809DF814309DF8154044EA03243D
:1038400024B2484B1C80FCF77DFE0022464BFCF75F
:10385000E3FEFDF7C3F9454E30602846FCF772FEE3
:103860000022414BFCF7D8FEFDF7B8F90546404F62
:1038700038602046FCF766FE00223B4BFCF7CCFE8E
:10388000FDF7ACF9DFF8FC80C8F80000FCF76CFE2F
:1038900041EC180B2846FCF767FEB0EE481AF0EE34
:1038A000681A41EC100B06F06FFB51EC100B28A3CB
:1038B000D3E90023FCF7B0FEFDF790F908EE100AFB
:1038C000D6ED007AF1EE677A17EE904A97ED000A8E
:1038D00020EE000AD8ED007A67EEA77A30EE270ACC
:1038E00006F054FB10EE100AFCF73EFE41EC190BFB
:1038F0002046FCF739FEB0EE491AF0EE691A41ECA9
:10390000100B06F041FB51EC100B11A3D3E900237F
:10391000FCF782FEFDF762F907EE900A154B93ED76
:10392000007A38EE078A144B83ED008A134B93ED2F
:10393000007A77EE877A124BC3ED007A06B0BDECC1
:10394000048BBDE8F081FFF70FFFF7E7AFF30080CE
:103950006666666666A64C40940A00205C020020FB
:103960005E020020600200200000103F801900204D
:103970000C100020240800206C1E0020B807002036
:10398000E8090020D41D002070B586B032230293D0
:103990000623019304AB009301234322D021464820
:1039A00003F06CFC002877D19DF810309DF81100D1
:1039B00040EA032000B2414B18809DF812309DF878
:1039C000135045EA03252DB23D4B1D809DF8143060
:1039D0009DF8154044EA032424B23A4B1C80FCF7BE
:1039E000B1FD31A3D3E90023FCF740FFFDF7F6F862
:1039F000354B18602846FCF7A5FD2BA3D3E900231F
:103A0000FCF734FFFDF7EAF8304B18602046FCF76E
:103A100099FD25A3D3E90023FCF728FFFDF7DEF885
:103A200007EE900A2A4B1B7843B9B0EEE77AF7EE1F
:103A3000006AB4EEE67AF1EE10FA30D4254B93ED3D
:103A4000007A77EE877A244BC3ED007ABFEE007AD6
:103A5000F4EEC77AF1EE10FA06D4B7EE007AF4EE7F
:103A6000C77AF1EE10FA15DD17EE900AFCF77CFD2F
:103A70000FA3D3E90023FCF7CFFD04460D46174EF4
:103A80003068FCF771FD22462B46FCF70DFCFDF774
:103A9000A5F8306006B070BDFFF766FEFAE70D4B83
:103AA00083ED007ACAE700BF0000000000606040BC
:103AB0007B14AE47E17A943F940A00207A020020FA
:103AC0007C0200207E020020E00800201010002070
:103AD0008402002080080020681E00207C0800204E
:103AE0002DE9F84F06468B46314B01221A70FFF73D
:103AF0004BFFFDF741FA31E00025F5EEC07AF1EE1B
:103B000010FA45D400242B4F4FF0000AC7F834A018
:103B1000FCF718FD804689462846FCF703FD02465F
:103B20000B4640464946FCF7BFFBFDF737F8B86344
:103B30002046FCF7F7FC02460B4640464946FCF798
:103B4000B3FBFDF72BF8F863C7F840A0012002F0A3
:103B500075FCFDF78DFE38B30436B6B25E4525D24E
:103B6000F01C80B2834521D9134BD3ED007AF5EEDA
:103B7000C07AF1EE10FABFDD9FED107A27EE877A5A
:103B8000B0EEC77ABCEEC77A17EE103A9DB2B4E732
:103B90009FED0A7A67EE877AF0EEE77AFCEEE77A35
:103BA00017EE903A9CB2AEE7FDF70EFCBDE8F88F39
:103BB000B60600200008004020080020000048420F
:103BC00008B5BF4B1B78002B00F09080BD4B1B78D5
:103BD000002B00F08280BC4B1B78002B00F0828011
:103BE00002F026FCB94B1B68C01AB94B1A784FF487
:103BF0007A7303FB02F3984203D3B64B1B78002B76
:103C000075D0B44B1B78012B79D0B34B19780629AA
:103C100078D0B24BD3ED007AFDEEE77A17EE903A0A
:103C2000002BB8BF5B42AE4A127893427ADAAD4BB2
:103C3000D3ED007AFDEEE77A17EE903A002BB8BF8D
:103C40005B429A426EDDA84B1B78012B72D0A74BCA
:103C50001B78012B6ED0A64B1B78012B6AD0012953
:103C600000F0A0809C4B1B78012B00F06581002B9D
:103C700000F07081984B1B78C3BBFDF7F9FDA8BB22
:103C80004FF4FA7002F0DAFB9A48FDF765FCFDF795
:103C9000EFFD994B1B78012B00F07C81974A12783D
:103CA000012A00F08C81022B20D1022A1ED140F67D
:103CB000B83240F61F514FF4FA60FDF74BFE4FF457
:103CC0004870FDF725FF00F5967292B240F61F513D
:103CD0004FF4FA60FDF768FE08E0FDF7F3F9FDF731
:103CE00073FB03E0FDF770FBFDF7ECF908BD8448BA
:103CF000FDF732FCFDF768FBFDF7E4F9F6E7FDF7A9
:103D00007DFEF3E7FDF760FBFDF7DCF902E07D489F
:103D1000FDF722FCFDF7ACFD0128F8D16E4B002227
:103D20001A70E3E77848FDF717FCFDF723FBFDF772
:103D30003BFBDBE7FDF748FB7448FDF70DFC4FF458
:103D4000FA7002F07BFB684B1B78012B0FD0674B9E
:103D50001B78012B14D0664B1B78012B19D0002344
:103D6000614A1370614A1370614A1370BEE74FF4E1
:103D70007A7240F61F514FF4FA60FDF715FEE6E740
:103D80004FF47A7240F61F514FF4FA60FDF7B8FD18
:103D9000E1E74FF47A7240F61F514FF4FA60FDF7F5
:103DA00003FEDCE7FDF764FD00287FF45BAFFDF761
:103DB0000BFBFDF787FE564B1B78012B12D04FF4FF
:103DC000FA7002F03BFBFDF753FD4B4B1B78022BC7
:103DD00012D0012B2ED0022B4AD04FF4FA7002F0F1
:103DE0002DFB83E7FDF76EF94A4B01221A704FF461
:103DF000FA7002F023FB79E7404A1278012AE8D1F1
:103E00004FF4C87240F61F514FF4FA60FDF7A2FD5F
:103E10004FF4FA7002F012FB4FF44870FDF778FE91
:103E200000F5967292B240F61F514FF4FA60FDF71A
:103E3000BBFDD2E7314A1278022ACCD14FF4C872C6
:103E400040F61F514FF4FA60FDF784FD4FF4FA700D
:103E500002F0F4FA4FF44870FDF75AFE00F596723E
:103E600092B240F61F514FF4FA60FDF749FDB4E7F6
:103E7000224B1B78022BB0D12748FDF76DFB40F693
:103E8000B83240F61F514FF4FA60FDF763FD4FF46E
:103E9000FA7002F0D3FA4FF47A70FDF739FEB0F5FC
:103EA000FA7F3BD24FF44870FDF732FE00F5967270
:103EB00092B240F61F514FF4FA60FDF721FD8CE7F6
:103EC000840200200A000020B0060020AC0200207E
:103ED0001000002078020020B6060020B407002061
:103EE0001100002020080020590200205A02002062
:103EF0005802002070B70008620200206302002010
:103F0000FCB6000818B7000834B7000840B700082E
:103F1000B0070020B10700204CB700084FF44870EC
:103F2000FDF7F6FD00F5967292B240F61F514FF480
:103F3000FA60FDF739FD50E72A4B9B6B002B7FF4AD
:103F4000D5AE284BDB6B002B7FF4D0AE264B002286
:103F50001A70CBE6FDF78CFC01287FF48BAE4FF492
:103F6000FA7002F06BFA214B1A68214B1A60214B50
:103F70001B7813B9204B1B784BB12048FDF7ECFAA6
:103F800040F61F514FF4FA60FFF7AAFDAEE6FDF7C9
:103F9000CBFDF2E71A4A1278022A02D0002A7FF4F7
:103FA0007DAE4FF44870FDF7B3FD00F5967292B206
:103FB00040F61F514FF4FA60FDF7A2FC96E6022B83
:103FC00002D0002B7FF46FAE4FF44870FDF7A0FDD8
:103FD00000F5967292B240F61F514FF4FA60FDF769
:103FE000E3FC83E600080040B606002098070020A6
:103FF0009C070020F0060020B007002060B70008F2
:104000006302002008B50748074B036002234360A2
:1040100040F6FF73836003F0A3FA00B908BDFFF711
:1040200026FB00BF880A00200030004008B5044885
:10403000044B036003F0C6FA00B908BDFFF717FB95
:10404000C41D00200008065008B50A480A4B03604A
:104050004FF4E133436000238360C36003610C22AB
:1040600042618361C36104F0DFFA00B908BDFFF764
:10407000FEFA00BFBC1800200010014008B5094836
:10408000094B0360094B436000238360C3600361F5
:104090000C2242618361C36104F0C6FA00B908BD15
:1040A000FFF7E5FA201E00200044004040420F00C8
:1040B00000B58FB000230A930B930C930D930893D4
:1040C0000993019302930393049305930693079333
:1040D0002248234A02604360836040F61F52C26058
:1040E0000361836103F040FF58BB4FF480530A9390
:1040F0000AA91A4804F03CF828BB184803F060FFEE
:1041000018BB00230893099308A9144804F032F956
:10411000E8B960230193002202920392059201A95B
:104120000E4803F0B1FFA0B904220DEB02010B48C9
:1041300003F0AAFF78B9094800F088FC0FB05DF8D9
:1041400004FBFFF794FAFFF792FAFFF790FAFFF7F4
:104150008EFAFFF78CFAFFF78AFA00BFC40F00202F
:104160000004004000B58FB000230A930B930C931A
:104170000D9308930993019302930393049305937A
:10418000069307932B482C4A02604360836040F6F5
:104190001F52C2600361836103F0E6FE002839D13B
:1041A0004FF480530A930AA9224803F0E1FF002844
:1041B00032D1204803F004FF00282FD100230893B8
:1041C000099308A91B4804F0D5F848BB6023019364
:1041D000002202920392059201A9164803F054FFAF
:1041E00000BB04220DEB0201124803F04DFFD8B9C9
:1041F000082201A90F4803F047FFB8B90C2201A912
:104200000C4803F041FF98B90A4800F01FFC0FB0BA
:104210005DF804FBFFF72BFAFFF729FAFFF727FAFF
:10422000FFF725FAFFF723FAFFF721FAFFF71FFA46
:10423000FFF71DFAEC0900200008004008B5094806
:10424000094B0360002343607F228260FF22C2602B
:1042500003614361836103F074FA00B908BDFFF79D
:1042600006FA00BF601900200028004000B587B0A2
:10427000002302930393049305930093019314483E
:104280004FF08042026042F20F724260836042F25D
:10429000CF02C2600361836103F066FE90B94FF400
:1042A0008053029302A90A4803F062FF60B9002319
:1042B000009301936946064804F05CF830B907B0F2
:1042C0005DF804FBFFF7D3F9FFF7D1F9FFF7CFF95A
:1042D000D81D002000B587B00023029303930493F8
:1042E0000593009301931348134A026053224260DE
:1042F00083604FF6FF72C2600361836103F034FE96
:1043000090B94FF48053029302A90A4803F030FF9A
:1043100060B90023009301936946064804F02AF827
:1043200030B907B05DF804FBFFF7A1F9FFF79FF97B
:10433000FFF79DF96C0F0020000C004000B599B00C
:10434000302200210DEB020004F0DCFC0023079377
:10435000089309930A930B9303930493059306938D
:104360000193284A116C41F080511164126C02F0E3
:1043700080520192019A0293234B1A6842F48042C0
:104380001A601B6803F480430293029B0D230C9375
:104390004FF480330D9301230E9311930223129354
:1043A0004FF48002139208221492A82215921693B9
:1043B000072317930CA800F099FFE0B90F23079388
:1043C00002230893002309934FF4A0530A934FF458
:1043D00080530B93052107A801F0E4F968B9022383
:1043E00003934FF48073069303A801F0B1FA30B938
:1043F00019B05DF804FBFFF73AF9FFF738F9FFF75A
:1044000036F900BF003802400070004008B501F0E6
:10441000E9FFFFF793FFFCF7E7FEFCF753FFFFF719
:1044200029F9FFF769F9FFF783F9FFF7EBFDFFF7CC
:10443000FDFDFFF709FEFFF721FEFFF739FEFFF74D
:1044400091FEFFF7FBFEFFF711FFFFF743FF634C01
:10445000204603F0E1FB624D284603F0DDFB00211E
:10446000204603F005FF0421204603F001FF082148
:10447000204603F0FDFE0C21204603F0F9FE00214A
:10448000284603F0F5FE0421284603F0F1FE5548C6
:1044900003F0C2FB544A002353639363D363136452
:1044A000A2F5806253639363FCF740FF4F4803F02B
:1044B000F1FB4F4C2046FDF741F82046FDF74CF844
:1044C0004FF400724B494C4800F084FCFCF73EFF6F
:1044D0004A4803F077F84A4B1A68D36843F0100350
:1044E000D360484B1A68D36843F01003D36001F0DF
:1044F0009FFF454B186001F09BFF444B186001F093
:1045000097FF434B1860FCF7D1FF01F091FF414B3F
:1045100018606420FCF7CCFD3F4C2046FDF70EF8F8
:104520002046FDF719F826E0FFF75EF9FFF72CFAB1
:10453000FCF722FD01F07CFF344B186022E0FDF710
:1045400003FDFDF75DFE354B1B78012B3CD0FDF7DD
:10455000D7FD402232492A4804F052FB402231491B
:10456000284804F04DFB304B1B78012B2FD02F4BEC
:104570001B78012B2ED001F05BFF244B1B68C01A67
:104580001328D1D82A4B1B78DBB9FDF771F9FFF757
:1045900017FB284B1B78012BD1D1274B1B78012B04
:1045A000CDD101F045FF1A4B1B68C01A234B1B7875
:1045B0009842C4D3FCF792FD01F03AFF144B186007
:1045C000BDE7FDF78DFFBEE7FDF74EFEBFE7FEF747
:1045D000BBF9CCE7FEF7B4F8CDE700BFEC0900204B
:1045E000C40F00206C0F002000080040D81D0020E0
:1045F00088B700085C10002014100020C41D0020A3
:10460000BC180020201E0020540200208002002040
:10461000A8020020B40F0020ACB70008B1060020AB
:104620002C0F0020841D0020D0060020D106002081
:10463000B1070020B6060020790200200B00002000
:10464000FEE7FEE7FEE7FEE7FEE7704770477047CC
:1046500008B501F0E1FE08BD08B5024801F02CFDE7
:1046600008BD00BFE408002008B5024800F088FC3F
:1046700008BD00BF1410002008B5024803F053FB2A
:1046800008BD00BFD81D002010B5074C204604F01F
:104690003BF923681B6813F0100F00D110BD2046B2
:1046A000FEF7A8FFFAE700BFBC18002010B5074CC2
:1046B000204604F029F923681B6813F0100F00D17D
:1046C00010BD2046FEF7B4FFFAE700BF201E002011
:1046D00008B5024803F027FB08BD00BF6C0F00209F
:1046E00008B5024801F0E8FC08BD00BF0019002031
:1046F00008B5024801F0E0FC08BD00BF5C140020D2
:1047000008B5024802F0B4FF08BD00BFC41D002078
:1047100082B0002100910B4B5A6C42F480425A64E3
:104720005A6C02F480420092009A01911A6C42F095
:1047300080521A641B6C03F080530193019B02B0FA
:10474000704700BF0038024030B589B000230393A2
:104750000493059306930793026803F1804303F5DE
:1047600090339A4201D009B030BD0446002501952E
:1047700003F58C335A6C42F480725A645A6C02F41A
:1047800080720192019A02951A6B42F004021A6338
:104790001B6B03F004030293029B0C23039303237C
:1047A0000493059503A9144801F07CF91348144BB0
:1047B000036045608560C5604FF4806303614FF41A
:1047C000006343614FF4005383614FF48073C3610E
:1047D0000562456201F078FB58B9084BA3639C63FE
:1047E00000221146122001F067FD122001F098FD11
:1047F000B9E7FEF73CFFF0E700080240001900208F
:104800001064024030B58BB00023059306930793E4
:10481000089309930368294A934204D0284A934293
:1048200026D00BB030BD00250195264C236B43F0FC
:1048300002032363236B03F002030193019BC02354
:10484000059312230693012307930323089304235C
:10485000099305A91C4801F025F90295236C43F43E
:1048600000132364236C03F400130293029BD8E724
:1048700000250395134C236B43F002032363236B42
:1048800003F002030393039B4FF440630593122349
:10489000069301230793032308930423099305A98F
:1048A000094801F0FFF80495236C43F48003236466
:1048B000236C03F480030493049BB2E7005400408C
:1048C00000580040003802400004024010B5036860
:1048D000144A934203D0144A934210D010BD02F5FB
:1048E000F232136C23F400131364104C4021204661
:1048F00001F0C2F98021204601F0BEF9EEE702F591
:10490000F032136C23F480031364084C4FF480617D
:10491000204601F0B1F94FF40061204601F0ACF9F6
:10492000DCE700BF00540040005800400004024093
:1049300002680E4B9A4200D0704700B583B0002148
:1049400001910B4B5A6B42F040025A635B6B03F0D0
:1049500040030193019B0A46502001F0ADFC50201A
:1049600001F0DEFC03B05DF804FB00BF0008065058
:10497000003802400268044B9A4200D07047034B53
:1049800001221A60FAE700BF002800403C0E4742AF
:1049900000B585B00368B3F1804F0BD0274A93422E
:1049A0001DD0274A934227D0264A934231D005B0E2
:1049B0005DF804FB0021009103F50E331A6C42F000
:1049C00001021A641B6C03F001030093009B0A466A
:1049D0001C2001F071FC1C2001F0A2FCE7E7002381
:1049E0000193194B1A6C42F002021A641B6C03F01B
:1049F00002030193019BDAE700230293124B1A6C26
:104A000042F004021A641B6C03F004030293029B3D
:104A1000CDE7002103910C4B1A6C42F008021A6496
:104A20001B6C03F008030393039B0A46322001F03A
:104A300043FC322001F074FCB9E700BF00040040E1
:104A400000080040000C00400038024000B589B06A
:104A500000230393049305930693079303681E4A68
:104A6000934205D01D4A93421BD009B05DF804FB68
:104A7000002301931A4B1A6B42F004021A631B6B5A
:104A800003F004030193019BC023039302230493C7
:104A9000059303220692079303A9124801F002F836
:104AA000E3E7002302930E4B1A6B42F008021A63ED
:104AB0001B6B03F008030293029B4FF470430393B4
:104AC00002230493059303220692079303A9064841
:104AD00000F0E8FFC9E700BF000400400008004004
:104AE0000038024000080240000C024030B58BB094
:104AF00004460023059306930793089309930368DC
:104B0000494A934204D0494A934247D00BB030BD42
:104B100000250195464B5A6C42F010025A645A6CBB
:104B200002F010020192019A02951A6B42F0010202
:104B30001A631B6B03F001030293029B4FF4C063E3
:104B400005930223069307950323089307230993EC
:104B500005A9384800F0A6FF3748384B03604FF0EE
:104B6000006343608560C5604FF480630361456105
:104B70008561C5610562456201F0A6F958B92E4B01
:104B8000A3639C6300221146252001F095FB25209C
:104B900001F0C6FBBAE7FEF76AFDF0E700250395D2
:104BA000234B1A6C42F400321A641A6C02F400327D
:104BB0000392039A04951A6B42F001021A631B6B6D
:104BC00003F001030493049B0C2305930223069333
:104BD0000795032308930723099305A9154800F0B7
:104BE00061FF1748174B03604FF000634360856017
:104BF000C5604FF48063036145618561C5610562ED
:104C0000456201F061F958B90D4BA3639C63002222
:104C10001146262001F050FB262001F081FB75E7AC
:104C2000FEF725FDF0E700BF001001400044004002
:104C300000380240000002405C1400204064024042
:104C4000E4080020886002404A4B5A6822F440324F
:104C50005A605A6841680A435A600268536823F4EC
:104C60008073536002685368016943EA012353600B
:104C70000268536823F04073536002685368816888
:104C80000B4353600268936823F4006393600268E7
:104C90009368C1680B439360826A374B9A4257D03E
:104CA0000268936823F07063936002689368816A76
:104CB0000B4393600268936823F04053936002684B
:104CC0009368C16A0B4393600268936823F0020300
:104CD000936002689368017E43EA4103936090F811
:104CE0002030002B3FD00268536843F400635360C8
:104CF0000268536823F46043536001684B68426A5A
:104D0000013A43EA42334B600268D36A23F47003EA
:104D1000D3620168CB6AC269013A43EA0253CB62AB
:104D20000268936823F4007393600268936890F8B4
:104D3000301043EA412393600268936823F4806350
:104D4000936002689368416943EA812393607047E6
:104D50000268936823F0706393600268936823F09D
:104D600040539360B0E70268536823F400635360D4
:104D7000CAE700BF002301400100000F38B310B59F
:104D80000446036C43B1236C13F0100F0BD00120C9
:104D9000002384F83C3010BDFFF7D6FC0023636489
:104DA00084F83C30EFE7236C23F4885323F00203AC
:104DB00043F0020323642046FFF746FF00206064AF
:104DC000236C23F0030343F001032364E0E7012095
:104DD0007047000010B582B013460022019290F88F
:104DE0003C20012A00F0AE800446012280F83C20DD
:104DF0000268906810F0010F13D1906840F0010034
:104E00009060534A1068534AA2FB0020800C00EBCC
:104E10004000019002E001980138019001980028BB
:104E2000F9D12268906810F4807F03D0906820F454
:104E3000807090602268906810F0010F77D0206C2D
:104E400020F4E06020F0010040F48070206452689B
:104E500012F4806F05D0226C22F4405242F480524A
:104E60002264226C12F4805F36D0626C22F006025B
:104E70006264002284F83C20A26B3748D063A26BA6
:104E800036481064A26B3648D06422686FF0220066
:104E900010602068426842F0806242602068826848
:104EA00042F48072826020680A4600F14C01A06BD7
:104EB00001F070F82B4B5B6813F01F0F27D12368AC
:104EC000294A934211D002F58072934207D0274AB3
:104ED000934214D0002033E000226264C9E702F557
:104EE0000072526812F01F0FF1D19A6812F0405F01
:104EF0002AD19A6842F080429A60002020E002F5B0
:104F00008072526812F0100FEFD0002018E0236872
:104F1000154A934201D0002012E09A6812F0405FD7
:104F200014D19A6842F080429A60002008E0236C15
:104F300043F010032364636C43F0010363640020B7
:104F400002B010BD0220FBE70020F9E70020F7E7E0
:104F5000C801002083DE1B43E5500008734F0008A2
:104F6000CF500008002301400020014000220140F2
:104F7000704708B5806BFFF7FBFF08BD70477047AF
:104F800038B5044602681168536811F0020F2FD03B
:104F900003F0200363B3036C13F0100F03D1036C11
:104FA00043F400730364936813F0405F19D1237EC8
:104FB000BBB9D36A13F4700F03D0936813F4806FF6
:104FC0000FD1536823F020035360236C23F48073C4
:104FD0002364236C13F4805F03D1236C43F001033B
:104FE00023642046FEF704FB23686FF012021A6068
:104FF000236819685A6802F0800211F0040F36D055
:10500000002A34D0226C12F0100F03D1226C42F42B
:10501000005222649A6812F4401F21D19A6B12F454
:10502000401F03D09A6812F4806F19D15A6812F4A5
:10503000806F15D19A6812F0405F11D1227E7AB943
:105040005A6822F080025A60236C23F48053236450
:10505000236C13F4807F03D1236C43F0010323649A
:10506000204600F041F923686FF00C021A602268B4
:105070001168536803F0400311F0010F04D01BB115
:10508000136813F0010F09D122681168536803F007
:10509000806311F0200F00D063B938BD236C43F456
:1050A000803323642046FFF769FF23686FF0010215
:1050B0001A60E9E7636C43F0020363646FF0200554
:1050C00015602046FFF75BFF23681D60E5E708B524
:1050D000806B40230364436C43F004034364FFF795
:1050E0004EFF08BD08B50346806B026C12F0500FEE
:1050F00025D1036C43F40073036403689A6812F0CB
:10510000405F19D1027EBAB9DA6A12F4700F03D087
:105110009A6812F4806F0FD15A6822F020025A6008
:10512000036C23F480730364036C13F4805F03D176
:10513000036C43F001030364FEF75AFA08BD026CE6
:1051400012F0100F04D1826BD26C18469047F5E72D
:10515000FFF715FFF2E7000030B482B0002301939F
:1051600090F83C30012B00F0B780012380F83C30F0
:105170000B68092B3ED90568EA689BB203EB430331
:105180001E3B072404FA03F322EA0303EB600568DD
:10519000EA688C680B8803EB43031E3B04FA03F3B5
:1051A0001343EB604B68062B3AD805686A6B03EB38
:1051B0008303053B1F2404FA03F322EA03036B6312
:1051C00005686A6B4B6803EB8303053B0C8804FAA4
:1051D00003F313436B630268404B9A4250D002685A
:1051E0003E4B9A4255D0002380F83C30184602B01E
:1051F00030BC704705682A699BB203EB4303072460
:1052000004FA03F322EA03032B6105682A698C6818
:105210000B8803EB430304FA03F313432B61C1E749
:105220000C2B16D805682A6B03EB8303233B1F2442
:1052300004FA03F322EA03032B6305682A6B4B6825
:1052400003EB8303233B0C8804FA03F313432B6320
:10525000C1E70568EA6A03EB8303413B1F2404FAB4
:1052600003F322EA0303EB620568EA6A4B6803EB87
:105270008303413B0C8804FA03F31343EB62AAE770
:105280000B68122BABD1164A536843F4800353606A
:10529000A5E70B68103B012BA5D8114A536843F4CE
:1052A000000353600B68102B9DD10E4B1B6802F15D
:1052B000467202F52E3202F28332A2FB03239B0CCC
:1052C00003EB83035B00019302E0019B013B01932D
:1052D000019B002BF9D186E7022088E700200140DE
:1052E00000230140C801002070470000002800F0A2
:1052F000DF8170B582B00446036813F0010F3BD024
:10530000A64B9B6803F00C03042B2CD0A34B9B688B
:1053100003F00C03082B21D06368B3F5803F4FD016
:10532000B3F5A02F52D09D4B1A6822F480321A6038
:105330001A6822F480221A606368002B50D001F0B2
:1053400077F80546954B1B6813F4003F14D101F024
:105350006FF8401B6428F5D90320B0E18F4B5B68E0
:1053600013F4800FD8D08D4B1B6813F4003F03D08B
:105370006368002B00F09E81236813F0020F54D065
:10538000864B9B6813F00C0F3ED0844B9B6803F058
:105390000C03082B33D0E368002B67D0804B01222D
:1053A0001A6001F045F805467C4B1B6813F0020FAC
:1053B00053D101F03DF8401B0228F5D903207EE1CE
:1053C000764A136843F480331360B5E7734B1A6869
:1053D00042F480221A601A6842F480321A60ABE705
:1053E00001F026F805466D4B1B6813F4003FC3D04F
:1053F00001F01EF8401B6428F5D903205FE1674BDC
:105400005B6813F4800FC6D1644B1B6813F0020F66
:1054100003D0E368012B40F04F81604A136823F00A
:10542000F803216943EAC1031360236813F0080FEE
:1054300040D0636963B35B4B01221A6000F0F8FF50
:105440000546564B5B6F13F0020F33D100F0F0FFAF
:10545000401B0228F5D9032031E1504A136823F09C
:10546000F803216943EAC1031360DEE74C4B0022D5
:105470001A6000F0DDFF0546484B1B6813F0020F71
:10548000D3D000F0D5FF401B0228F5D9032016E148
:10549000444B00221A6000F0CBFF05463F4B5B6F88
:1054A00013F0020F06D000F0C3FF401B0228F5D90D
:1054B000032004E1236813F0040F78D0374B1B6CF2
:1054C00013F0805F0DD100230193344B1A6C42F02E
:1054D00080521A641B6C03F080530193019B0125D9
:1054E00000E00025304B1B6813F4807F21D0A368B7
:1054F000012B32D0052B36D0284B1A6F22F0010237
:105500001A671A6F22F004021A67A368002B34D0BE
:1055100000F08EFF0646214B1B6F13F0020F45D1A2
:1055200000F086FF801B41F288339842F3D90320B4
:10553000C5E01D4A136843F48073136000F078FFE0
:105540000646194B1B6813F4807FD0D100F070FF22
:10555000801B0228F5D90320B1E0104A136F43F0F5
:1055600001031367D1E70D4B1A6F42F004021A676B
:105570001A6F42F001021A67C7E700F059FF0646AA
:10558000064B1B6F13F0020F10D000F051FF801B71
:1055900041F288339842F3D9032090E0003802406A
:1055A00000004742800E474200700040EDB9A369F9
:1055B000002B00F08380494A926802F00C02082A0E
:1055C00051D0022B17D0464B00221A6000F030FF5A
:1055D0000446424B1B6813F0007F42D000F028FFC6
:1055E000001B0228F5D9032069E03C4A136C23F024
:1055F00080531364DBE73A4B00221A6000F018FF77
:105600000546364B1B6813F0007F06D000F010FFF4
:10561000401B0228F5D9032051E0E369226A1343B5
:10562000626A43EA8213A26A5208013A43EA0243D9
:10563000E26A43EA0263294A5360294B01221A6055
:1056400000F0F6FE0446254B1B6813F0007F06D1E0
:1056500000F0EEFE001B0228F5D903202FE0002009
:105660002DE000202BE0012B2BD01C4B5B6803F4BA
:105670008001E269914226D103F03F02216A8A4209
:1056800023D1616A47F6C0721A40B2EB811F1ED166
:1056900003F44031A26A5208013AB1EB024F18D12B
:1056A00003F07063E26AB3EB026F14D1002006E0EE
:1056B00001207047012002E0012000E0002002B03C
:1056C00070BD0120FBE70120F9E70120F7E7012089
:1056D000F5E70120F3E70120F1E700BF00380240C1
:1056E00060004742F8B52D4B9B6803F00C03082B74
:1056F00001D02B48F8BD294B5A6802F03F025B6885
:1057000013F4800F28D0254B5B68C3F3881358012E
:105710000021C01A61F100018E0146EA90668701FE
:105720003C1A66EB0105E90041EA5471E000C0183B
:1057300041F100018B0243EA90538402204619464E
:105740000023FBF79BFA154B5B68C3F3014301335E
:105750005B00B0FBF3F0CDE7104B5B68C3F388133D
:105760005C010025E41A65F10005AE0146EA946685
:10577000A701381B66EB0501CC0044EA5074C50054
:10578000E81844F100018B0243EA9053840220465A
:1057900019460023FBF772FAD5E700BF0038024034
:1057A0000024F400002800F09B8070B50D460446EC
:1057B0004F4B1B6803F007038B4208D2CBB24C4A15
:1057C0001370136803F007038B4240F08B8023684B
:1057D00013F0020F17D013F0040F04D0454A93685A
:1057E00043F4E0539360236813F0080F04D0414A58
:1057F000936843F4604393603E4A936823F0F00358
:10580000A1680B439360236813F0010F32D06368E3
:10581000012B21D09A1E012A25D9364A126812F08E
:10582000020F61D033498A6822F0030213438B6070
:1058300000F0FEFD06462F4B9B6803F00C036268E8
:10584000B3EB820F16D000F0F3FD801B41F28833DA
:105850009842F0D9032042E0264A126812F4003F31
:10586000E0D101203BE0234A126812F0007FD9D139
:10587000012034E01E4B1B6803F00703AB4207D93D
:10588000EAB21B4B1A701B6803F00703AB422DD121
:10589000236813F0040F06D0164A936823F4E053EC
:1058A000E1680B439360236813F0080F07D0114A97
:1058B000936823F46043216943EAC1039360FFF7CF
:1058C00011FF0C4B9B68C3F303130B4AD35CD84006
:1058D0000A4B18600A4B186800F05EFD002070BD8E
:1058E000012070470120FAE70120F8E70120F6E7E0
:1058F000003C024000380240D4B70008C801002034
:10590000C4010020014B1868704700BFC801002087
:1059100008B5FFF7F7FF044B9B68C3F38223034AE4
:10592000D35CD84008BD00BF00380240E4B700088F
:1059300008B5FFF7E7FF044B9B68C3F34233034A04
:10594000D35CD84008BD00BF00380240E4B700086F
:1059500030B583B00446036813F0050F06D1236801
:1059600013F0020F2ED1002003B030BD494B0022AE
:105970001A6000F05DFD0546474B1B6813F0006F91
:1059800006D000F055FD431B022BF5D90320EBE7B1
:105990006268A3681B0743EA82133F4AC2F8843057
:1059A0003C4B01221A6000F043FD05463A4B1B6850
:1059B00013F0006FD3D100F03BFD431B022BF5D950
:1059C0000320D1E700230193334B1A6C42F080523D
:1059D0001A641B6C03F080530193019B2F4A1368D8
:1059E00043F48073136000F023FD05462B4B1B68C6
:1059F00013F4807F06D100F01BFD431B022BF5D969
:105A00000320B1E7244B1B6F13F4407312D0E268FC
:105A100002F440729A420DD01F4B1A6F22F440726A
:105A20001F4901200860002008601A671B6F13F0EF
:105A3000010F13D1E36803F44072B2F5407F1ED02A
:105A4000154A936823F4F813936013490B6FE268C7
:105A5000C2F30B0213430B67002085E700F0E8FC5C
:105A600005460D4B1B6F13F0020FE3D100F0E0FC75
:105A7000401B41F288339842F3D9032074E706496A
:105A80008A6822F4F81223F0704323F4407313431E
:105A90008B60DAE76800474200380240007000403F
:105AA000400E474200230F2B00F2DD80F0B482B09D
:105AB0005DE086685F000324BC4026EA0406CC68EB
:105AC000BC4034438460466826EA02064C68C4F34E
:105AD00000129A403243426057E0DC08083450F824
